:020000040000FA
:10000000D01D01206502000095DC0000B15E0000FB
:1000100021D6000097200000EB190100000000002D
:10002000000000000000000000000000A901000026
:10003000A525000000000000FD010000C90D010021
:100040007F0200007F0200007F0200007F020000AC
:100050007F0200007F0200007F0200007F0200009C
:100060007F0200007F0200007F0200007F0200008C
:100070007F0200007F0200007F0200007F0200007C
:100080007F0200007F0200007F02000000000000ED
:100090000000000000000000000000007F020000DF
:1000A0007F0200007F0200007F0200007F0200004C
:1000B000C50E0100D10E01007F0200007F0200008A
:1000C0007F0200007F0200007F0200007F0200002C
:1000D0007F0200001918010025180100000000002F
:1000E0004D2B00007F0200007F0200000000000096
:1000F0000000000000000000000000007F0200007F
:10010000000000007F0200007F0200007F0200006C
:1001100000000000000000000000000000000000DF
:100120007F0200007F0200007F0200007F020000CB
:100130007F0200000000000000000000000000003E
:100140000000000000000000000000007F0200002E
:100150007F0200007F0200007F0200007F0200009B
:100160007F0200007F02000000000000000000008D
:10017000000000000000000000000000000000007F
:10018000000000007F0200000000000000000000EE
:100190007F020000DFF80CD000F07CFF0048004731
:1001A0009D460100D01D01202B4B19680868B0E85E
:1001B000F04F80F30988BFF36F8F4FF0000080F39A
:1001C000118870470000000006480068006880F34E
:1001D000088862B661B6BFF34F8FBFF36F8F00DF41
:1001E00000BF00BF08ED00E0DFF80C00016841F43B
:1001F00070010160704700BF88ED00E0EFF30980F7
:10020000BFF36F8F144B1A681EF0100F08BF20ED5C
:10021000108A20E9F04F106008B44FF0500080F3CE
:100220001188BFF34F8FBFF36F8F15F07DFD4FF037
:10023000000080F3118808BC19680868B0E8F04F26
:100240001EF0100F08BFB0EC108A80F30988BFF3CE
:100250006F8F704700BF00BF70040020EFF3058070
:10026000704700000648804706480047FEE7FEE763
:10027000FEE7FEE7FEE7FEE7FEE7FEE7FEE7FEE756
:10028000710E0100950100002DE9F05F0546002088
:1002900092469B4688460646814640241BE02846F7
:1002A00041464746224600F051F853465A46C01A86
:1002B000914110D311461846224600F01FFD2D1A19
:1002C00067EB01084F4622460120002100F016FD91
:1002D00017EB00094E41201EA4F10104DFDC484663
:1002E00031462A464346BDE8F09F2DE9F0410024FF
:1002F000061B254671F1000605DA01240027D0EB24
:10030000070067EB0101161E73F1000605DA0027EE
:10031000D2EB0702012567EB0303FFF7B5FF864623
:100320000E4617469C46AC4204D00025D0EB050E85
:1003300065EB010624B10020D2EB000760EB030C53
:10034000704631463A466346BDE8F081202A04DB18
:10035000203A21FA02F00021704721FA02F3D0403E
:10036000C2F1200291400843194670470048704787
:10037000A47C010010B50446FFF7F8FF0068005D9B
:1003800000F0010010BD00000649074A086850430C
:1003900043F2390210440860400870470149086080
:1003A00070470000000700206D4EC64138B5D0E907
:1003B0000221491E01EB410102EBC1014268C1EB80
:1003C000011102EB81010268C1EB011102EB810214
:1003D000D0E9043101EB410103EB81013023A1F5A8
:1003E000527191FBF3F4174D6C4302EBC41291FB75
:1003F000F3F403FB141100921A2902DB124B1A4486
:1004000000920C2291FBF2F3104C6343009C04EB2E
:10041000C313009391FBF2F302FB13110C4A08E0A3
:10042000491E40F2A324535C6343009C04EBC313B6
:1004300000930029F4DC0146684600F08DFC00982A
:1004400038BD00003F0C0F008051010067C203005F
:10045000A87C010010B500F079FCBDE8104000F068
:10046000C1BC10B5431A934209D28318881803E01F
:1004700010F8011D03F8011D521EF9D210BD40EA0B
:1004800001039B0703D009E008C9121F08C0042A12
:10049000FAD203E011F8013B00F8013B521EF9D2F9
:1004A00010BDD2B201E000F8012B491EFBD270470B
:1004B0000022F6E710B513460A4604461946FFF730
:1004C000F0FF204610BD421E12F8013F002BFBD169
:1004D00011F8013B02F8013B002BF9D1704730B510
:1004E00005462A460B4612F8010B13F8014B08B1DA
:1004F000A042F8D01CB1002802D06D1CF1E72846BC
:1005000030BDCAB2401E10F8011F8A4202D0002935
:10051000F9D100207047421C10F8011B0029FBD1C3
:10052000801A704710B5002200E0521C835C8C5C7E
:10053000A34201D1002BF8D1D8B2E1B2401A10BDCC
:1005400030B504460020034600E05B1C934203D212
:10055000E05CCD5C401BF8D030BD034611F8012BA8
:1005600000F8012B002AF9D11846704730B505462E
:100570000020034600E05B1C934205D2EC5CC85CA3
:10058000201A01D1002CF6D130BD2DE9F0410E46E4
:100590000546002400E0641C285D00F0D0FB0746FF
:1005A000305D00F0CCFB381A02D1295D0029F2D170
:1005B000BDE8F0812DE9F0410546002090460E4649
:1005C000044600E0641C44450BD2285D00F0B7FBF4
:1005D0000746305D00F0B3FB381A02D1295D0029CF
:1005E000F0D1BDE8F08110B54843044611F072FF28
:1005F000002805D00021002C02D0641E0155FAE726
:1006000010BD00000FB400B589B00BA800906A4679
:1006100003480A9900F0D6FC09B05DF814FB00000D
:10062000080700200FB400B58DB010A909900B90F9
:1006300000914FF0FF300A9000200C900548069082
:10064000054807906A4609A80F9900F03DFC0DB0D7
:100650005DF814FBE50E0000030F00002DE9FF5FBD
:100660001D464FF0FF3BD5E9014691465F464FF0EE
:100670000008A9697F1C01988847296A8246884733
:100680000028F6D1BAF1FF3F0CD024F4C064002E4C
:1006900019DD600614D5BAF12B0F09D0BAF12D0F70
:1006A0000ED103E0584604B0BDE8F09F44F48064E6
:1006B000A9697F1C01988847761E8246002E02DDBC
:1006C000BAF1300F03D0B9F1000F26D032E0A9699A
:1006D000761E44F400747F1C019888478246002EE1
:1006E00005DDBAF1780F06D0BAF1580F03D0B9F191
:1006F000000F10D01EE0B9F1000F02D0B9F1100FB9
:1007000018D1A969761E24F400747F1C01988847CB
:100710008246102002E0082000E00A20814609E01D
:1007200008FB0908A969761E44F400747F1C01982F
:1007300088478246002E05DD4946504600F0B0FB52
:100740000028EDDAE96901988847A00502D46FF026
:100750000100A8E7E00725D1600613D5600502D5A2
:10076000C8F1000000E0404629680A1D2A600968B7
:10077000220501D5087015E0220701D5088011E097
:1007800008600FE02868011D29600068210502D576
:1007900080F8008006E0210702D5A0F8008001E083
:1007A000C0F8008038467EE72DE9FF5FD2E901A757
:1007B0004FF00008916999461446DDF838B0464676
:1007C00001988847054659EA0B0005D009E0A16960
:1007D000761C019888470546216A284688470028E4
:1007E000F5D1681C03D05FEACA7005D015E04FF060
:1007F000FF3004B0BDE8F09F2068011D2160D0F8F3
:1008000000800AE05FEACA7001D108F8015BA169C3
:10081000761C7F1E019888470546002F1ADD681C4C
:1008200018D0B9F1000F0DD0E81705EBD0604211D8
:1008300020F01F0059F822102A1A0120904001428E
:10084000E0D107E0BBF1000FDCD1216A28468847E0
:100850000028D7D0E16901988847BBF1000F07D184
:10086000002E05DD5FEACA7002D1002188F8001071
:10087000A068B84203DDBBF1000F03D017B16FF0E1
:100880000100B6E73046B4E72DE9F04791460F4640
:1008900080460446002614F8015B2DB1FFF766FD83
:1008A0000068405DC007F6D12B2D02D02D2D18D049
:1008B000641E4A463946204600F034FB27B13968A9
:1008C000A14201D1C7F8008071054FF002040BD599
:1008D0004042002803DD11F0B5FD0460A007BDE82B
:1008E000F08746F48066E4E70028F8DA11F0AAFD04
:1008F00004606FF00040F2E770B5064611F0A2FD0B
:10090000046805460A2200213046FFF7BDFF2C602F
:1009100070BD2DE9FE4F804681EA0300C00F0C46F2
:10092000009021F0004123F00045B8EB0200A941FE
:1009300005D24046214690461C460B46024623F00F
:100940000040104347D0270DC7F30A00C3F30A51F4
:100950000290401A019040286BDAC3F3130040F470
:10096000801B0098924620B10023D2EB030A63EB70
:100970000B0B01985946C0F14002504600F0BEF9F9
:1009800006460D4650465946019A00F0C6F910EB4E
:1009900008006141002487EA115284EAE7731A4390
:1009A00040D0009A62B3019A012A4FEA075215DC3F
:1009B000001B61EB02014FF0004202EA0752CDE951
:1009C0000042001C41F5801132462B4600F013FB1B
:1009D00003B0BDE8F08F40462146F9E7001B61EB0C
:1009E0000201001C41F5801300185B412018A2F59C
:1009F000001747EB030140EAD570B6196D4111E0CD
:100A00006D084FEA360645EAC0754FEA0752001BEB
:100A100061EB0201001C41F5801149084FEA3000EA
:100A20000019514132462B4603B0BDE8F04F00F0AB
:100A3000D3BA0098012240000023D0EB020263EBFE
:100A4000E073009821464FEAE074B8EB000061EBD8
:100A50000401E9E783F000435BE781F0004158E7D8
:100A60002DE9FE4F81EA030404F0004421F0004127
:100A700000944FF0000B23F0004350EA01045ED0D5
:100A800052EA03045BD0C3F30A54C1F30A552C4461
:100A9000A4F2F3340194A0FB0254C1F3130141F416
:100AA0008011C3F3130343F4801301FB024400FBE2
:100AB000034E840A970A44EA815447EA8357A4FB09
:100AC000076802958D0A05FB07854FEA932C04FB06
:100AD0000C542705029D4FEA065847EA1637B5EB36
:100AE00008056EEB070C870E920E47EA811742EA63
:100AF0008312A7FB0201B6EB0B0164EB00042B0D84
:100B000043EA0C335E1844EB1C50DA465146E7FBCF
:100B10000201C5F313044FEA0B3343EA14534FEABF
:100B20000432019C43EA0603A4F10C040294009CE5
:100B3000CDE900B400F05FFA03B0BDE8F08F00200B
:100B40000146F9E72DE9F04D81EA030404F0004B7A
:100B500021F0004514464FF0000A23F0004150EA0E
:100B6000050220D054EA01021DD0C5F30A570246FF
:100B7000C5F31303C1F31300C1F30A5640F4801503
:100B800043F48013A7EB0608101BD64608F2FD3885
:100B900073EB050002D308F1010801E092185B41F4
:100BA000B8F1000F03DA00200146BDE8F08D002007
:100BB0004FF48011064684460EE0171B73EB0507C1
:100BC00005D3121B63EB050306434CEA010C4908ED
:100BD0004FEA300092185B4150EA0107EDD152EA2A
:100BE000030012D082EA040083EA0501084305D01D
:100BF000101BAB4106D20122002306E000224FF079
:100C0000004302E06FF0010253101AEB06004CEBB8
:100C1000085110EB0A0041EB0B01BDE8F04D00F06C
:100C2000DBB90EB540F2334102910021CDE900114C
:100C30000A460B4600F0DFF903B000BDC1F30A52CB
:100C400010B5C1F3130140F2FF3341F480119A4211
:100C500001DA002010BD40F233439A42A2F233423F
:100C600003DC5242FFF772FB10BD904010BDC1F390
:100C70000A52C1F3130140F2FF3341F480119A424A
:100C800002DA00200146704740F233439A42A2F252
:100C9000334202DC5242FFF759BB00F02FB800008C
:100CA00030B5041E71F1000404DB4FF000444042F3
:100CB00064EB0101141E73F1000405DB1C464FF0C8
:100CC0000043524263EB0403994208BF904230BD97
:100CD00030B50B46014600202022012409E021FA0C
:100CE00002F59D4205D303FA02F5491B04FA02F509
:100CF0002844151EA2F10102F1DC30BD202A04DBDC
:100D0000203A00FA02F1002070479140C2F120031E
:100D100020FA03F3194390407047202A06DBCB17D3
:100D2000203A41FA02F043EAE07306E041FA02F3A6
:100D3000D040C2F120029140084319467047A0F10B
:100D40004101192900D8203070470000014900F006
:100D500003B8000088BD002010B500683C22B0FB3D
:100D6000F2F302FB1303B0FBF2F00B60B0FBF2F303
:100D700002FB1303B0FBF2F018224B60B0FBF2F35E
:100D800002FB1303B0FBF2F0021D8B600723B2FBE2
:100D9000F3F403FB1422800040F2B55300F66C30EC
:100DA0008A61B0FBF3F2B0FBF3F403FB14004432AE
:100DB00080084A61C8613B2802D3920700D0401CDA
:100DC0000022074C13460A61E25C824203D8801A73
:100DD0005B1C0B61F8E7401CC860084610BD0000B2
:100DE000B47C0100F0B52A4B2A4C85B00021826901
:100DF00002EB42020A44491CA25C03F8012B0329BE
:100E0000F5DB244C4FF0200C002103F801CB153406
:100E1000026902EB42020A44491CA25C03F8012B5E
:100E20000329F5DBC1680091816801914168029155
:100E300001680391406918A200F26C706C460A27A1
:100E4000049017E003F8010B12F8010F08B1022516
:100E500000E0042502CC284607E091FBF7F607FBEB
:100E6000161691FBF7F130361E54061EA0F1010054
:100E7000F3DC2B4410780028E4D11F70587004482C
:100E8000017A302901D180F808C005B00048F0BDD2
:100E9000B4BD0020C07C010020203A3A20000000B0
:100EA0003A2800D2303820F02002412A01D3A2F1A2
:100EB0003700884201D34FF0FF3070470268114479
:100EC0001378016018467047D160044951610449A4
:100ED000116200211161114600F004B9BD0E00003D
:100EE00075030000426842B1016811F8013B23B16B
:100EF000521EC0E90012184670470121C160881EC9
:100F0000704742685AB1C368016843B983688B422D
:100F100005D0491E521CC0E90012002070474FF056
:100F2000FF3070472DE9F05F8246007800271546B4
:100F30008B460AF10104B946302801D09DB113E077
:100F400014F8010B0127782803D0582801D045B1A7
:100F50000AE00DB1102D07D10027102514F8010B60
:100F600002E0082500E00A250026B0460EE005FB59
:100F7000080005FB06F1012701EB10461FFA80F877
:100F8000B6F5803F00D3B94614F8010B2946FFF7A8
:100F900087FF0028EBDABBF1000F05D00FB1641E0C
:100FA00000E05446CBF80040B9F1000F06D011F034
:100FB00049FA02210160C81EBDE8F09F48EA0640D8
:100FC000FAE70000024B9361024BD361FFF77CBF4D
:100FD0008D370100D510000010B5141E73F1000408
:100FE00008DA401C41F1000192185B411A4301D11B
:100FF00020F0010010BD2DE9F04D92469B4611B145
:10100000B1FA81F202E0B0FA80F220329046FFF7A6
:1010100075FE04460F4640EA0A0041EA0B015346BA
:101020005A46084313D0114653EA010019D0C8F1BB
:1010300040025046FFF78AF905460E46504659468B
:101040004246FFF75BFE084305D0012004E020463E
:101050003946BDE8F08D0020054346EAE0762C4392
:1010600037430A986305E40AA0EB08000022FD0A52
:1010700044EA47540A3002D500200146E9E7010559
:1010800010196941DDE9084500196941BDE8F04DD5
:10109000A2E70000064C074D06E0E06840F00103BF
:1010A00094E8070098471034AC42F6D3FFF776F87F
:1010B0004C8B01006C8B0100094910B508784C1C61
:1010C00018B1401E0870205C10BD00210720ABBE87
:1010D000207010BD02490878421C0A707047000059
:1010E000140700202DE9F34F8BB04FF0000801F1F9
:1010F0000C000C464FF0010B46460DF1080A01901A
:101100006269012101989047051E2DD0252D2CD014
:10111000216A8847C0B16269012101989047216A1C
:1011200088470028F7D1411E62690198904700E086
:10113000761CA1690B988847216A88470028F7D157
:10114000E1690B988847DBE7A1690B988847074658
:10115000A84201D1761CD3E7E1690B9888477F1C30
:1011600002D1B8F1000F6FD046E1002762693D4619
:101170003946019890472A2804D1626901210198D3
:1011800090470125DFF88492626901210198904718
:10119000A0F130010A290AD24F45E5DC07EB8701AF
:1011A00000EB4107303FDFD445F01005ECE7E906DE
:1011B00001D46FF000476C280AD04C2814D068285E
:1011C00015D06A280DD074281CD07A281AD01DE0BA
:1011D00062690121019890476C2802D045F004050E
:1011E00014E045F002050DE045F020050AE06269D3
:1011F000012101989047682802D045F0080505E0D4
:1012000045F400656269012101989047C4E90157DE
:1012100065283DD019DC58287AD00CDC452837D019
:1012200004DC252826D0412831D131E046282FD0B2
:1012300047282CD12CE05B2877D0612828D0632860
:101240007CD0642823D15AE0D0E06F2848D008DC55
:1012500066281DD067281BD0692821D06E2816D19A
:1012600027E0702845D0732868D0752847D07828A3
:101270000DD14DE0A1690B988847054625283FF41C
:1012800069AFE1690B9888476D1C3FF46AAFB3E022
:1012900023466A466FF001000B99AFF300809EE091
:1012A00045F040006060A80723464FF0000236D4A6
:1012B0003EE0E8077FF447AF2068011D2160006829
:1012C000290501D506701BE7290701D5068017E718
:1012D000A90703D5F117C0E9006111E706600FE720
:1012E00045F040006060A80723464FF0080216D47E
:1012F0001EE040F60E0125EA0100606016E045F0B0
:1013000040006060A80723464FF00A0207D40FE0B0
:1013100045F040006060A80708D5234610226FF012
:1013200001000B99AFF3008059E007E0234610223B
:101330006FF001000B99FFF791F950E04FF00009B1
:101340004F464B46632802D05B2806D040E0E806B3
:1013500001D40120A06001273AE0626901210198CF
:1013600090475E2805D14FF001096269494601980E
:101370009047216939B900210A46534643F8212094
:10138000491C0829FADBB0B3216969B9C11700EB20
:10139000D16253110AEB830122F01F02821A01204D
:1013A0000B68904003430B606269012101989047EC
:1013B0005D28E8D1B9F1000F09D00020514651F85D
:1013C0002020D24341F82020401C0828F7DB02AB44
:1013D000224600976FF001000B99FFF7E5F900280E
:1013E0000CDA401C08D1BBF1000F05D04FF0FF30E4
:1013F0000DB0BDE8F08FFFE74046F9E7E90701D1FE
:1014000008F1010806444FF0000B79E6CCCCCC0C77
:1014100070B58C1810F8015B15F0070301D110F8B6
:10142000013B2A1106D110F8012B03E010F8016BE3
:1014300001F8016B5B1EF9D12B0705D40023521E66
:101440000DD401F8013BFAE710F8013BCB1A921CCE
:1014500003E013F8015B01F8015B521EF9D5A142CC
:10146000D8D3002070BD000070B51A4D044618494D
:10147000686800F063F81649A8680C3100F098F825
:10148000134D15A120462A6810F0B2FF12A104F1F5
:101490000A006A6810F0ACFF0FA104F11400AA68FA
:1014A00010F0A6FF0C350CA104F11E002A6810F004
:1014B0009FFF09A104F128006A6810F099FF04F168
:1014C0003200AA68BDE8704003A110F091BF00008F
:1014D000C4AB0020E0050020256C640010B500249A
:1014E000204606F037FB012804D005A010F058FF75
:1014F000204610BD4FF4FA6001F0C8FC012010BD79
:101500000D0A5B496E69745D2E5B455D2E20466158
:10151000696C656420496E69617469616C697A619E
:1015200074696F6E20496E7465726E6574204164D3
:1015300061707465722E200D0A00000010B540B174
:10154000C26831B1926922B19047012800D00020D1
:1015500010BD012010BD10B50C460021216068B1FE
:1015600001280FD00228204610D000F0E5F801280D
:1015700010D1204600F0E6F901280BD1204600F0FA
:1015800053FA05E0204600F0DDF901E000F0D4F860
:10159000012800D0002010BD10B538B1C16889689D
:1015A00021B18847012800D0002010BD012010BDC6
:1015B00010B540B1C26831B1926922B1904701289B
:1015C00000D0002010BD012010BD10B5002208463B
:1015D0000A6000F067FA012800D0002010BD10B5A5
:1015E00038B1C168896821B18847012800D000203E
:1015F00010BD012010BD000070B5184C0646E07803
:10160000012821D00FF0CAF901281DD0BC2020707C
:10161000BE2060700025A570E57025710120607105
:101620000F4804F108030F4983E82300011F0E4A05
:101630000A60C0E900153460E1682046096821B1FC
:101640008847012807D0002070BD1421FEF730FF25
:101650000120356070BD3068F7E7000014BD002040
:10166000D4060020280000209000002070B5184CFF
:101670000646E078012822D00FF090F901281ED00C
:10168000BC202070BE2060700025A570E57025711B
:101690000120607104F1080304F128000D4983E87A
:1016A00023000E490C4A0A60C0E900153460E16865
:1016B0002046096821B18847012807D0002070BD65
:1016C0001421FEF7F5FE0120356070BD3068F7E7A4
:1016D00050BD00205C00002090000020F406002097
:1016E00010B540B1C26831B1926922B1904701286A
:1016F00000D0002010BD012010BD10B5002208460A
:101700000A60FFF779FF012800D0002010BD20B14A
:1017100019B1C0780870002070470120704710B5DB
:1017200038B1C168896821B18847012800D00020FC
:1017300010BD012010BD000070B51A4C054694F88C
:101740002B00012825D00FF029F9012821D03320C2
:1017500004F8280F302060700220A0700026E67088
:101760001048267166714C30A0600F48E0600F4849
:1017700020610C480E493C30C0E90416143828603A
:10178000C168096831B18847012809D005F0F8FA25
:10179000002070BD1421FEF78BFE01202E6070BD6D
:1017A0002868F7E7ACBC002018040020F4030020F0
:1017B000B806002070B50446114886B000210268C2
:1017C00042F00102026000680E4E00F00100059038
:1017D00036F8140000900120CDE901010A4D0220E5
:1017E000039055F82400694601F09AFC36F814106D
:1017F00055F82400002201F05CFD06B070BD000029
:1018000030380240E26E0100000000200449054A21
:1018100031F8101052F82000002201F04ABD0000FB
:10182000E26E0100000000200449054A31F8101062
:1018300052F82000012201F03CBD0000E26E0100E0
:101840000000002070B5194C0546E078012823D02F
:101850000FF0A4F801281FD0B1202070BA206070CA
:101860000026A670E67026710120607111491048AB
:10187000C4E9020110492161011F104A0A60C0E950
:1018800000162C60E1682046096831B188470128BC
:1018900009D007F06DFA002070BD1421FEF708FE94
:1018A00001202E6070BD2868F7E700003CBD0020D5
:1018B000EC060020A000002008010020800100208C
:1018C00070B51B4C0646E07D012827D00FF066F866
:1018D000012823D0B1202075BA2060750120A075A1
:1018E0000025E5752576607604F13000E061114849
:1018F00020621148606212481049016004F1280119
:10190000C1E90205A1F114003060C168096831B174
:101910008847012809D007F02BFA002070BD142158
:10192000FEF7C6FD0120356070BD3068F7E70000A6
:1019300050BD0020D4000020440100208001002080
:10194000F806002070B5194C0646E07D012824D029
:101950000FF024F8012820D0332020753220607544
:101960000120A0750025E5752576607604F1440018
:10197000E0610F4820620F48606204F13C000E49AC
:10198000C0E9021528383060C168096831B188475C
:10199000012809D008F002FA002070BD1421FEF7DA
:1019A00087FD0120356070BD3068F7E7ACBC0020D2
:1019B0005C03002038030020B006002070B5174CEF
:1019C0000646E07801281FD00EF0E8FF01281BD062
:1019D000402020703C2060700025A570E5702571C6
:1019E000012060710E4804F108020E4982E82300CC
:1019F000011FC0E900153460E1682046096821B183
:101A00008847012807D0002070BD1421FEF750FD43
:101A10000120356070BD3068F7E7000028BD002068
:101A2000E0060020AC03002070B5194C0546E078B4
:101A3000012824D00EF0B2FF012820D06A202070A7
:101A4000D62060700026A670E670267101206071B5
:101A5000104904F13C00C4E902010F492161104919
:101A60000E4A0A60C0E900162C60E1682046096849
:101A700031B18847012809D00AF0D6F9002070BD9D
:101A80001421FEF715FD01202E6070BD2868F7E7D0
:101A9000ACBC002094020020880100203403002008
:101AA000A806002070B5194C0546E078012824D01E
:101AB0000EF074FF012820D06A202070D6206070BC
:101AC0000026A670E6702671012060711149104849
:101AD000C4E902011049216100F108010F4A0A60BE
:101AE000C0E900162C60E1682046096831B18847DA
:101AF000012809D00AF098F9002070BD1421FEF7E2
:101B0000D7FC01202E6070BD2868F7E700BD0020DB
:101B1000C0060020E4020020580200203403002008
:101B200010B5002208460A60FFF748FF012800D0E0
:101B3000002010BD10B538B1C168896821B188474F
:101B4000012800D0002010BD012010BD0349044A27
:101B500031F8101052F8200001F0A6BBE46E01002D
:101B60000400002030B50446194887B000220368FD
:101B700043F0040303600068174B00F00400059075
:101B80001448C1B1012914D130F814000090134851
:101B9000CDE9010253F82400694601F0C1FA0D4D68
:101BA00000222D1F0F21285702F050F8285702F06D
:101BB00042F807B030BD30F81400CDE90002022031
:101BC0000290039053F82400694601F0A9FAF0E767
:101BD00030380240E46E01000400002000002110B3
:101BE00010B5002208460A60FFF72CFE012800D03D
:101BF000002010BD10B538B1C168896821B188478F
:101C0000012800D0002010BD012010BD10B540B14A
:101C1000C26831B1926922B19047012800D00020FA
:101C200010BD012010BD10B50C460021216050B13F
:101C3000012804D02046FFF719FD012808D12046CD
:101C4000FFF73EFE02E02046FFF710FD012800D01E
:101C5000002010BD20B119B1C07808700020704775
:101C60000120704710B538B1C168896821B1884733
:101C7000012800D0002010BD012010BD70B5154610
:101C80000E4678B185B1BEB104460068114613F026
:101C9000C1FC98B1C4E900052A463146FEF7E1FBD4
:101CA000002070BD672070BD0446006810F0CEFBB8
:101CB000002020606060F3E7792070BD832070BD54
:101CC00070B5002811D00446082010F003FC050070
:101CD0000FD0606810F0FEFB286038B1D4E9001224
:101CE000FEF7BFFB60686860284670BD284610F0AC
:101CF000ADFB002070BD20B119B100680860002064
:101D00007047C420704770B50D46060010D00820FB
:101D100010F0E0FB040009D0284610F0DBFB206047
:101D200040B12A463146FEF79CFB6560204670BDF7
:101D30000024FBE7204610F089FBF9E710B50028E6
:101D400009D00446006808B110F080FB2046BDE8C9
:101D5000104010F07BBB10BD70B50D4668B175B179
:101D6000044640684119206813F054FC48B12060D3
:101D7000606828446060002070BDF32070BDF820CA
:101D800070BD40F2011070BD002800D0406870475F
:101D900010B5082010F09EFB002802D00021016041
:101DA000416010BD70B50D4628B135B104460068DC
:101DB00028B1AA2070BD9D2070BDA22070BD08462C
:101DC00010F088FB206010B10020656070BDB1206C
:101DD00070BD20B119B140680860002070474FF411
:101DE0008A707047002800D00068704710B540B175
:101DF0000446006838B110F029FB002020606060C4
:101E000010BDD72010BDE62010BD70B5040003D072
:101E1000FEF781FB800701D0002524E0FFF7B8FF23
:101E2000050020D02046FEF776FBE0B18108204473
:101E300001EB410110F8012C3D2A05D110F8020CEC
:101E40003D2800D1491E491E69B12846FFF7AAFF67
:101E50000028284602D0FFF771FFDDE7FFF7C2FF39
:101E6000214600F09BF8284670BD1CB5040003D045
:101E700001A9FFF740FF08B100201CBD69462046BC
:101E8000FFF7A7FF0028F7D1DDE9001000F00AF8FE
:101E90001CBD002804D009B100F004B80EF033BC1A
:101EA000704700002DE9F0410E0007464FF0000595
:101EB0000DD0701E0321B0FBF1F08000001D401C0E
:101EC00010F008FB040004D00020334925E0002076
:101ED000F5E700255DE07A5D01EB9203920793F848
:101EE00000E07B194FEA926C5A789B784CEA121CFE
:101EF0001207920E42EA931203F03F0311F80CC04E
:101F00008A5CCB5C04F800E0401C04F800C0401C74
:101F10002254401C2354401CED1C721B032ADAD2AD
:101F2000731B3D22022B02D0012B17D027E07E5DD0
:101F30003D4401EB9603B6074FEA966C6E781B782A
:101F40004CEA16154D5D06F00F01134E4036715CDC
:101F50002354401C2554401C21540DE07B5D01EBB3
:101F600093010D7803F003010B4B1B1F595C2554A3
:101F7000401C2154401C2254401C2254401C00216F
:101F8000215420460EF064FC050002D1204610F0DA
:101F90005DFA2846BDE8F081746F01002DE9FF4726
:101FA0000E468046002500E06D1C6946705D11F00C
:101FB0005BF8401CF8D100273C4633E0F05D03A9F4
:101FC00011F052F806EB070902A999F8010011F087
:101FD0004BF899F80200694611F046F899F80300A9
:101FE00001A911F041F89DF80C009DF8081080003F
:101FF00040EA111008F804009DF808009DF8001050
:102000000001641C40EA910108F804109DF80000EA
:102010009DF80410641C41EA801108F80410641C47
:102020002D1F3F1D042DC9D2022D23D0032D1FD1FA
:10203000F05D01A911F018F8F5196946687811F0FA
:1020400013F8A87802A911F00FF89DF804009DF884
:102050000010800040EA111008F804009DF800000C
:102060009DF80810000140EA9101641C08F8041072
:10207000BDE8FF87F05D694610F0F6FFF01901A991
:10208000407810F0F1FF9DF800009DF804108000EA
:1020900040EA1111EAE70020FFF7C6FBFBE700006A
:1020A00010B50024034810F07BF9034810F078F9CC
:1020B000204610BD647D0100FC7C0100F0B53D4C64
:1020C000064695B0207830B13B4803F0F5FE3A481B
:1020D0001430FFF7C9F94FF4806529463046FEF702
:1020E000E7F9354900226831344802F04BF93149AB
:1020F00000222831314802F023F92F4A2D48683256
:1021000028309778537881780DF1040C12788CE898
:102110008E0041780091C37829A220210AA813F0EB
:1021200069FB002801DA30A03CE02348203800F0A9
:102130006FFE08B3204F20780AAC203FF0B107F1C2
:102140006600A0F11402A0F11E03A0F10A01CDE97E
:102150000810CDE9063228381E3ACDE9042032397C
:10216000283BCDE90231CDE90074203B294A2946BC
:10217000304613F03FFB12E027A013E03223192270
:102180002FA112A810F034F912A80097CDE9014050
:10219000094B2D4A203B2946304613F02BFB0028E3
:1021A00005DA2AA010F0FCF8002015B0F0BD0120DF
:1021B000FBE70000E005002074AB0020ECAC002041
:1021C0003230253032642D253032642D2530326492
:1021D00054253032643A253032643A253032642E48
:1021E0003030303030305A005B496F544875625D92
:1021F0005B455D2E204661696C656420746F2063C9
:102200006F6D706F7365206D657373616765200D09
:102210000A000000A08601005B496F544875625DAA
:102220005B455D2E204661696C6564206F20726598
:10223000747269657665204D41432E200D0A0000B9
:10224000256C642E256C6400288701005B496F545F
:102250004875625D5B455D2E204661696C65642052
:10226000746F20636F6D706F7365206D657373613C
:1022700067652E200D0A00002DE9F047002590B07B
:10228000A8464B4810F08CF84A4810F089F84FF4F3
:102290007A6000F0FBFD0020FFF758FC464CDFF8A9
:1022A0001CA1A4F10C0904F1200704F12C0600285C
:1022B0001AD00CF083FFA0B141A010F071F82146B4
:1022C00047A010F06DF8314648A010F069F8394683
:1022D00049A010F065F8C9E900460125C9F8087061
:1022E00052E04BA010F05CF89AF8000050B151A0F9
:1022F00010F056F80CF096FF0546012810D056A0B5
:1023000010F04EF89AF8000010EA080F3CD15DA0DA
:1023100010F046F813F084FD0546012832D128E07C
:1023200064A010F03DF824492DA010F039F8314692
:102330002EA010F035F839462FA010F031F8C9E979
:1023400000464FF0010862A16846C9F80870FEF720
:1023500004F9684610F006F80546012821D10EF070
:1023600083FA054601280DD1CCE700BF10F018F81C
:1023700019E0C9E90046C9F808700EF075FA05467B
:10238000012801D057A0F1E79AF8000058B150A1F8
:102390006846FEF7E2F868460FF0E4FF05460128BC
:1023A00001D059A0E2E710B02846BDE8F087000050
:1023B000F47E01004C7F01008807002010000020FF
:1023C0000A0D5B496E69745D2E205265616420665A
:1023D000726F6D20464C4153483A0A0D00000000D0
:1023E0000953534944203D25730A0D00094B657973
:1023F00020203D25730A0D000941757468656E74CF
:1024000069636174696F6E20203D25730A0D0000B9
:102410000A0D5B496E69745D2E204E6F20646174F5
:1024200061207772697474656E20696E20464C4134
:1024300053482E000D0A5B496E69745D2E2052656B
:102440006164696E672066726F6D204E46432E2E62
:102450002E2E0A0D000000005B496E69745D2E206F
:102460004E6F2057692D466920706172616D6574E9
:102470006572732066726F6D204E46432E200A0DE2
:10248000000000000A0D5B496E69745D2E205265E4
:10249000616420706172616D65746572732066722B
:1024A0006F6D2073657269616C207465726D696E01
:1024B000616C2E005B496E69745D2E20526561640B
:1024C0002066726F6D204E46433A0A0D00000000F0
:1024D0007777772E73742E636F6D2F73746D33322D
:1024E0006F6465000D0A5B496E69745D5B455D2E26
:1024F000204572726F7220696E20415020536574BE
:1025000074696E67730D0A000D0A5B496E69745D2C
:102510005B455D2E204572726F72207768696C652D
:102520002077726974696E672055524C20746F2051
:102530004E4643200D0A0000012105E0203A5F2AA3
:1025400001D3002104E0401C10B10278002AF5D12B
:1025500008467047426811604B6843604B681860DA
:102560004A6070474060006070474268C1E90002FD
:102570001160416070470168814201D101207047BC
:1025800000207047D0E9001081420160486001D10D
:10259000012070470020704701680A68026050609F
:1025A000084670470020FFF73FB900002DE9F74FBC
:1025B000824692B00C46886BFFF7DDFF002857D1AA
:1025C0009AF80810002604F13C000590002958D024
:1025D000A7A2B1A1A06903F064FC002848D109A911
:1025E000204612F063FA30B1012841D002283FD0D2
:1025F00003283DD13FE0FFF7CBFB05000DD0099844
:102600000EF078F8074609980DF068FF01463A4643
:102610002846FFF733FBB8B904E0A16B059813F027
:102620004DF822E020690DF059FF03460AA8CDE9D4
:10263000020601950496A0690090DAF804100122C0
:10264000606A03F0B5F820B1A16B059813F036F875
:1026500008E00A98B0F5967FF6D200220599149802
:1026600005F0BFFC2846FFF769FB09980EF020F83B
:1026700015B0BDE8F08F03220599149805F0B1FC60
:10268000F6E7002008900990A06B066856F80C0D3C
:1026900005F0FCFDC8B10128EAD1306805F003FE61
:1026A000089008B1FDF737FF00F5C0790990089848
:1026B0000028DDD0B9F57F3F12D3A06BFFF76CFF88
:1026C00001460598FFF751FFD5E709AA08A9306828
:1026D00005F0C7FD0028CBD1099800F5C079E9E7DE
:1026E000A06903F06BFB5FEA000BC1D06EA26AA188
:1026F00003F0D7FB00287BD1306805F0DEFD0CAB82
:102700000AAA0BA90AF03DFF0028F4D101253FE0F9
:102710000A9951F82800FDF7FEFE0B99074651F87B
:102720002800FDF7F8FE391801EB090000F1100947
:10273000B9F57F3F0CD3A06BFFF72EFF014605983C
:10274000FFF713FF03220599149805F04AFC0CE0EB
:102750005CA00DF02BFF070007D00B99384651F80D
:1027600028100DF0DDFE68B901E000250EE03846C6
:102770000DF0B4FE0A9A0146584652F8282003F09C
:1027800090FB00B1002538460DF092FF08F10100E2
:1027900080460C98804501D2002DB9D1306805F0F3
:1027A0007EFD4B4F024635B12AB15846396803F0D9
:1027B00078FB00B10025306805F06DFD0246BDB123
:1027C00022B15846796803F06CFB88B9FFF7E0FA4C
:1027D000060048D0DDE90812FFF750FAE8BB0025F3
:1027E0000F95E0680FAFC8B10DF078FE024600E02B
:1027F00039E038A1584603F054FB70BB20690DF056
:102800006DFE0096CDE901750395DAF80450024695
:102810005B460121284602F0CEFE0EE020690DF055
:102820005DFECDE90275CDE900B604950346DAF800
:1028300004100122606A02F0BBFF70B90F98B0F576
:10284000967F0DD2A06BFFF7A7FE01460598FFF714
:102850008CFE00220599149800E001E005F0C1FB10
:102860003046FFF76BFA584603F0C4FA00E7000061
:102870006170706C69636174696F6E2F766E642E1F
:102880006D6963726F736F66742E696F74687562B9
:102890002E6A736F6E000000436F6E74656E742D48
:1028A00054797065000000006170706C6963617438
:1028B000696F6E2F6F637465742D73747265616DCB
:1028C00000000000696F746875622D6170702D00E2
:1028D00074060020417574686F72697A6174696F5B
:1028E0006E0000002DE9F74F81462DED028B86B07A
:1028F00091F828000C4600287DD0002011F0C4F982
:10290000054694F8300090B9681C10D0D9F80C0036
:10291000FEF787F941EC180B2846E16A11F0A8F997
:1029200053EC182B51EC100BFEF7BAF963D203F0FD
:1029300034FA5FEA00085ED0FFF72AFA06006ED08C
:102940004FF0000ACDF814A0E06805AFB8B10DF063
:10295000C5FD024673A1E06903F0A3FA00285DD12A
:1029600060690DF0BBFDCDE90286CDE900A7024606
:10297000E3690021D9F8040002F01DFE0FE0606950
:102980000DF0ACFDCDE90386CDE901A70346E06972
:102990000090D9F804100022606A02F009FF0028B4
:1029A000DDD1681C08D084F830A0E5620598CC28F9
:1029B00034D0C828D3D103E0012084F83000F5E7F3
:1029C0005CA1404603F00FFA070027D0FDF7A3FDF6
:1029D000022823D33978222920D1384410F8010C59
:1029E00022281BD13046FFF7CFF905463046FFF7C6
:1029F000F9F9294600E090E005F0E8FB5FEA000BFA
:102A000006D001A9404603F03DFA48B100236FE02B
:102A100000233A462146484610F0FEF970E072E085
:102A2000019810B1584605F048FC0025029051E08D
:102A30006A462946404603F0EBF968BB0B223FA0EB
:102A40000099FDF793FDB0B13F480068FDF763FDC5
:102A500002463D4800990068FDF788FDE8B13A4814
:102A60004068FDF758FD0246374800994068FDF779
:102A70007DFDF0B12AE03A210098FDF742FD28B330
:102A800080F800A00099821C0B3102980AF090FC9B
:102A90001AE000980FF0DAFC1FE03A210098FDF7E9
:102AA00030FD98B180F800A0811C584605F01DFC4F
:102AB0000AE03A210098FDF724FD38B180F800A023
:102AC000811C584605F0FDFB0028E2D100980FF06C
:102AD000BDFC6D1C01988542AAD30198854295D30F
:102AE00059460A9805F06CFAA8B101288ED1012345
:102AF0003A462146484610F08FF9584605F092FBB9
:102B00003046FFF71BF906B04046BDEC028BBDE82E
:102B1000FE4F03F06FB90223EAE706B0BDEC028B6B
:102B2000BDE8FE8F417574686F72697A6174696F70
:102B30006E0000004554616700000000696F746812
:102B400075622D6170702D00740600204FF4806056
:102B500000F0DABA10B50020FEF766FEBDE81040BE
:102B60000CF094BC002229B101291FD0022920D0E9
:102B70004FF4407210490B6823F440730B600B68EC
:102B800013430B600A6822F0F8020A600A68F8230F
:102B900093FAA3F3B3FA83F3984040F002000243A0
:102BA0000A60086840F48030086070474FF4807213
:102BB000E0E74FF40072DDE7103C02401348016883
:102BC00089050FD5016821F400710160016841F4A5
:102BD00000610160016821F400610160016841F455
:102BE00000710160016849050FD5016821F4806119
:102BF0000160016841F480510160016821F4805155
:102C00000160016841F4806101607047003C02404E
:102C100008490A6822F440720A600A6842F0040215
:102C20000A600A684FF4803343EA002002430A60D6
:102C300070470000103C0240064A136823F44073BA
:102C4000136013681360136843F00103136001708D
:102C500070470000103C0240084910B50C6824F48D
:102C600040740C600C6844F440740C600C6844F0D0
:102C700001040C600260436010BD0000103C024083
:102C8000074A136823F440731360136843F4807396
:102C90001360136843F00103136001807047000064
:102CA000103C0240074A136823F440731360136812
:102CB00043F400731360136843F001031360016071
:102CC00070470000103C02401F490868C043C2061C
:102CD0001E4805D4C26942F01002C26110220A6087
:102CE0000A68D243920605D4C26942F00802C26162
:102CF00020220A600A68D243520605D4C26942F013
:102D00000402C26140220A600A68D243120605D456
:102D1000C26942F00202C26180220A600A68D2439C
:102D2000D20506D4C26942F00102C2614FF480723A
:102D30000A600A68D243920705D4C26942F02002B1
:102D4000C2610220086070470C3C02405C07002012
:102D500070B5134904460020C86100F0AFFA06467A
:102D6000104D09E0601C07D024B100F0A7FA801BC9
:102D7000A04201D9032070BD2868C043C003F1D52B
:102D80002868C00701D00120286029684FF4F97035
:102D9000884301D0002070BDFFF796FF012070BD71
:102DA0005C0700200C3C02402DE9F0410E46044631
:102DB0000CF0C6FB224610A113480FF019FB124875
:102DC000FDF7A9FB80B20EF063FD040010D10EF0F8
:102DD0004FFD04460D480746FDF79DFB054602469C
:102DE00039463046FDF73DFB29463846FDF760FB86
:102DF0002046BDE8F081000041542B532E47434646
:102E0000473D25730D00000054A3002099A2002027
:102E100070B588B00446002569460EA0FFF7C4FFD0
:102E200028B110A00FF0BCFA284608B070BD0123ED
:102E300000208DF81100014602466E46755C3A2D61
:102E400001D0A554521C491C1129F7DBA054184687
:102E5000EBE700006E765F776966695F6D616361BD
:102E6000646472005B455D2E204572726F72207241
:102E7000657472696576696E67204D4143206164AF
:102E80006472657373200D0A0000000031B500F014
:102E900015FA044600F012FA0099001B8842F9D393
:102EA00038BD00002DE9F047044622480F46017E58
:102EB00001290AD00121804601764CF2503948465A
:102EC000FFF746FF020003D02FE00220BDE8F087A5
:102ED0004FF0FF3038602068174D012801D0A668F8
:102EE0001CE0207C6168FFF793FE4846FFF730FF47
:102EF0000246286820F00400286014E0217C304657
:102F0000FFF730FE4846FFF723FF0200286820F055
:102F1000FA00286001D03E6005E0761CD4E902107A
:102F20000844B042EAD8FFF749FE002188F818109B
:102F30001046CBE75C070020103C024003480168C4
:102F400041F000410160002070470000103C024049
:102F50002DE9F0471B4E05461446307E1F46894634
:102F6000012808D0012030764CF250384046FFF757
:102F7000EFFE18B114E00220BDE8F0879DB1012DED
:102F800016D0022D19D022463B464846FFF764FE74
:102F90004046FFF7DDFE0C490A6822F001020A6094
:102FA00000213176E8E7E1B24846FFF745FEEFE75A
:102FB000A1B24846FFF764FEEAE721464846FFF71C
:102FC00071FEE5E75C070020103C024006480068FF
:102FD000002807DA044805490C38016004490160FB
:102FE0000020704701207047103C024023016745D4
:102FF000AB89EFCD2DE9F04FDFF8ECB000224FF0B8
:1030000001094FF00F0A00BF09FA02F401EA0403B4
:10301000A34264D1066857000325BD40AE43066055
:10302000D60800EB8607D7F820C056074FEAD668C7
:103030000AFA08F62CEA060CC7F820C08668AE43E8
:1030400086604668A6434660C468AC43C46022F00C
:1030500003055D44D5F808689407270F0AFA07F4BA
:10306000DFF888C02640604502D14FF0000C1DE01B
:10307000DFF87CC0604502D14FF0010C16E0DFF8AC
:1030800074C0604502D14FF0020C0FE0DFF868C059
:10309000604502D14FF0030C08E0DFF860C06045E6
:1030A00002D14FF0040C01E04FF0050C0CFA07FCC4
:1030B000B44514D1D5F80868A643C5F80868104C83
:1030C00025689D432560241D25689D432560241D9A
:1030D00025689D432560241D25689D432560521C5D
:1030E000102A91D3BDE8F08F00300140000002406B
:1030F0000004024000080240000C024000100240A0
:10310000003C014070470000044910B50A680242C3
:1031100002D00860FFF7F6FF10BD0000143C01402C
:103120002DE9F84FDFF860B100224FF001084FF0B1
:10313000030A4FF00F090BF1040E00BF0B6808FAE9
:1031400002F42340A3426ED14D68022D01D0122D0E
:103150000ED1D50800EB850CDCF820505607F70E91
:1031600009FA07F6B5430E69BE402E43CCF820603D
:10317000066855000F790AFA05FC07F0030726EAEE
:103180000C06AF40374307604E68012E05D0022E73
:1031900003D0112E01D0122E0ED18668CF6826EAF8
:1031A0000C06AF40374387604668A6430C79C4F3EA
:1031B0000014944034434460C6688C6826EA0C06C8
:1031C000AC403443C4604C68E40056D52F4C2568AD
:1031D00045F480452560246822F0030504F480440A
:1031E00000942B4C2E19D6F8084895072F0F09FA92
:1031F00007F5AC43274DA84201D1002515E0264D27
:10320000A84201D1012510E0244DA84201D1022598
:103210000BE0234DA84201D1032506E0214DA84231
:1032200002D1042501E028E00525BD402543C6F86C
:103230000858DBF800405D464E689C43F60300D515
:103240001C432C60DEF8004075464E689C43B60374
:1032500000D51C432C600C4D08352C684E689C43EF
:10326000F60200D51C432C60074D0C352C684E68C7
:103270009C43B60200D51C432C60521C102AFFF45C
:103280005DAFBDE8F88F0000003C014044380240CB
:1032900000300140000002400004024000080240EB
:1032A000000C0240001002400069084000D00120DC
:1032B00070470AB1816170470904FBE70148006863
:1032C000704700000C00002010B5040013D024202B
:1032D00084F83D002068016821F00101016020466A
:1032E00000F024FC0020206484F83D0044F8300FF6
:1032F000A073207310BD012010BD90F83D007047F1
:1033000070B5040004D094F83D00002510B106E02B
:10331000012070BD84F83C50204600F009FC2420B8
:1033200084F83D002068016821F00101016000F08F
:1033300031FE33492268B0FBF1F15160314A6368D4
:10334000934206D94FF4967359434FF47A73B1FB05
:10335000F3F12368491C1962616891420BD8490056
:10336000B0FBF1F2C2F30B02042A01D2042019E0EF
:10337000B0FBF1F016E0A3689BB301EBC10202EBD6
:103380000112B0FBF2F242F48042120530D04BB38E
:1033900001EBC10202EB0111B0FBF1F040F48040FF
:1033A00040F400402168C861D4E90701084321685E
:1033B0000860D4E90310084321688860D4E9050156
:1033C00008432168C8602068016841F0010101607C
:1033D0002564202084F83D00256384F83E500020B9
:1033E00070BD00E006E001EB4102B0FBF2F2CCE779
:1033F0000120D7E701EB4101B0FBF1F0D0E700007D
:1034000040420F00A08601002DE9FF4F044690F8CE
:103410003D0081B099468B460126202875D142F2A5
:10342000107301224949204602F0B6FF00286CD1F2
:1034300094F83C00012868D0012084F83C00206802
:10344000016821F400610160242084F83D0000251A
:1034500025643F48E06220272068016841F48071BC
:1034600001604B4600224FF00111204602F094FF0C
:1034700000285BD121680BF0FE000861FFF71EFFFA
:103480008046206841694069C1F3400294F83D10CC
:10349000C0F380204FF0A00A14E000BFB9F1000F84
:1034A00005D0FFF70BFFA0EB0801494501D984F8CF
:1034B0003DA0206841694069C1F3400294F83D1085
:1034C000C0F38020024301D1A029E7D184F83D70E8
:1034D00020684169C943890718D4016841F4007123
:1034E0000160206841698069009042F210730122F6
:1034F0001649204602F050FFC0B984F83D7084F8A8
:103500003C50002005B0BDE8F08F1CE0016841F49C
:103510000071016021686FF48060486142F21073AD
:1035200001220A49204602F037FF08B10320E9E7EB
:1035300031460398761C81428ED384F83D7084F81E
:103540003C500120DEE70220DCE700000200100012
:103550000000FFFF2DE9F843044690F83D00DDF838
:1035600020901E461546884620287DD142F21073D1
:1035700001226A49204602F00FFF0028F5D194F895
:103580003C00012870D0012084F83C0020680168CC
:1035900021F400610160222084F83D00102084F8AD
:1035A0003E00002727645E48E0624A4641462046C6
:1035B00002F082FD28B1206C84F83C7004283CD0D5
:1035C00076E0E6B1012E23D02068DFF85881022E84
:1035D000016835D041F480610160206841698069EB
:1035E0000090032E76D8012E1FD0022E34D04B46E9
:1035F00000224146204602F0CFFEB0BB46E02068E4
:10360000416981690091016841F4007101607AE0CB
:103610002068016821F48061016020684169816946
:103620000091016841F4007101604946204602F0B2
:1036300041FFD8B1206C20283AD00120BDE8F883A2
:1036400021F4806101602068016841F4006101603B
:1036500020684169806900904B460022414620461F
:1036600002F09AFE08B905E056E021E02068006902
:10367000287048E02068016841F40071016020680A
:10368000006928702068006968703CE02068016863
:1036900021F4806101602068006905F8010B761E45
:1036A000B6B24B4600224146204602F075FE08B1F4
:1036B0000320C3E72068016841F4007101602068BD
:1036C000006905F8010B2068006905F8010BB61EBA
:1036D00015E0FFE74946204602F0ECFE0028A9D19C
:1036E0002068006905F8010B2068761EB6B24169B2
:1036F000C943490704D4006905F8010B761EB6B228
:10370000002E7FF46EAF202084F83D0084F83E70D8
:1037100084F83C70002091E702208FE7020010003F
:103720000000FFFF040001002DE9F84F044690F867
:103730003D00DDF828B01D461646884620287CD17D
:1037400042F2107301224549204602F025FE00286E
:1037500073D194F83C0001287DD0012084F83C000E
:103760002068016821F400610160212084F83D0097
:10377000102084F83E00002727643948E0625A464A
:103780004146204602F002FD28B1206C84F83C70CE
:1037900004285ED00FE02068B846416980694FF088
:1037A000200900903EE05946204602F0B7FE28B1BD
:1037B000206C042848D00320BDE8F88F216816F853
:1037C000010B086120686D1EADB24169C94349070C
:1037D00005D425B116F8011B01616D1EADB25F461F
:1037E000FFF76CFD824618E0204602F051FC0028ED
:1037F000DED1781C11D02FB1FFF760FDA0EB0A00DD
:10380000B8420AD9206C40F020012164C4F830800D
:1038100084F83D9084F83C80CAE720684069C04342
:103820004007E1D4002DBED154F81F0B016841F4CC
:103830000071016084F81E9000E00CE084F81F80A5
:1038400084F81D800020B7E72068016841F400710A
:1038500001600120B0E70220AEE700000200100086
:103860000000FFFF2DE9F84F04460AA8984690E8AB
:10387000600294F83D0092468B4620287CD142F2AB
:10388000107301226949204602F086FD0028F5D117
:1038900094F83C0001286FD0012084F83C00206897
:1038A000016821F400610160222084F83D0040207D
:1038B00084F83E00002727645D48E0624346524694
:1038C00059462046CDF8009002F0A8FC28B1206CA3
:1038D00084F83C70042837D072E0BEB1012E1ED0AF
:1038E000DFF850812068022E31D041698069009054
:1038F000032E77D8012E1FD0022E35D04B46002242
:103900004146204602F048FDB8BB47E020684169C7
:1039100081690091016841F4007101607BE02068D9
:10392000016821F48061016020684169816900912A
:10393000016841F4007101604946204602F0BAFD79
:10394000E0B1206C20283BD00120BDE8F88F016851
:1039500021F4806101602068016841F40061016028
:1039600020684169806900904B460022414620460C
:1039700002F012FD08B905E056E021E02068006978
:10398000287048E02068016841F4007101602068F7
:10399000006928702068006968703CE02068016850
:1039A00021F4806101602068006905F8010B761E32
:1039B000B6B24B4600224146204602F0EDFC08B16B
:1039C0000320C2E72068016841F4007101602068AB
:1039D000006905F8010B2068006905F8010BB61EA7
:1039E00015E0FFE74946204602F064FD0028A8D113
:1039F0002068006905F8010B2068761EB6B241699F
:103A0000C943490704D4006905F8010B761EB6B214
:103A1000002E7FF46DAF202084F83D0084F83E70C6
:103A200084F83C70002090E702208EE7020010002E
:103A30000000FFFF040001002DE9F84F0446DDE916
:103A40000A6590F83D00DDF83080994692468B4635
:103A5000202865D142F2107301223249204602F03B
:103A60009BFC00285CD194F83C00012858D0012030
:103A700084F83C002068016821F400610160212085
:103A800084F83D00402084F83E0000272764264843
:103A9000E0624B46524659462046CDF8008002F07F
:103AA0002FFC08B3206C84F83C70042836D007E063
:103AB0004146204602F032FD28B1206C042828D06F
:103AC0000320BDE8F88F216816F8010B0861206813
:103AD0006D1EADB24169C943490705D435B116F829
:103AE000011B01616D1EADB2002DE1D141462046A2
:103AF00002F014FD0028E0D154F83D0B016841F4B8
:103B000000710160202004F81E09E7776777002024
:103B1000D7E72068016841F4007101600120D0E717
:103B20000220CEE7020010000000FFFF70470000F7
:103B30001F4800B5026887B0002142F0020202600F
:103B4000006800F0020005904FF4407000901220D1
:103B500001900220CDE90210042004906946154826
:103B6000FFF7DEFA12481030016841F400110160DD
:103B7000006800F4001005900D481038016841F409
:103B800000110160016821F400110160002211465A
:103B90001F2000F05BF81F2000F04DF800221146B6
:103BA000202000F053F8202000F045F807B000BDB9
:103BB000303802400004024002480168491C01609C
:103BC000704700000C0000200B4810B5016841F45C
:103BD00000710160016841F480610160016841F495
:103BE00080710160032000F051F80F2000F006F80A
:103BF00000F015F8002010BD003C024010B504464E
:103C000000F0AEF94FF47A71B0FBF1F000F03DFD39
:103C100000222146501E00F019F8002010BD704708
:103C200000F01F02012191404009800000F1E020D6
:103C3000C0F88011704700F01F0201219140400937
:103C4000800000F1E020C0F800117047F0B40E4B86
:103C50001B680C46C3F30223C3F10705042D00D9EA
:103C60000425191D072901D2002300E0DB1E0126CF
:103C700006FA05F1491E214099409E40761E1640E5
:103C80003143F0BC0AF007B80CED00E0064900F043
:103C9000070208684FF6FF03184040EA0220034A73
:103CA00010430860704700000CED00E00000FA05CA
:103CB000BFF34F8F05480168054A01F4E0611143E5
:103CC0000160BFF34F8F00BFFDE700000CED00E087
:103CD0000400FA052DE9F843054600784FF0010984
:103CE000C0074FF0000633D0DFF82081C8F86860C5
:103CF000FFF7E4FA0746464C05E000BFFFF7DEFA9F
:103D0000C01B022861D820680001F7D447F6C071B3
:103D100091FAA1F16868B1FA81F188404FF0E04270
:103D200092FAA2F2A968B2FA82F2914008433849A5
:103D300084310860C8F86890FFF7C0FA074604E0CD
:103D4000FFF7BCFAC01B02283FD820680001F7D556
:103D50002878800750D52E484030016841F08051C6
:103D6000016000682B4C00F080500090206840F407
:103D700080702060FFF7A2FA074604E0FFF79EFA82
:103D8000C01B022821D82068C005F7D5204C70340C
:103D90002068A98900F4407001F4407188422BD05A
:103DA00020681D4920F44070C1F800900E6020602A
:103DB000800710D5FFF782FA064641F2883707E000
:103DC000FFF77CFA801BB84202D90320BDE8F883D4
:103DD00020688007F4D5E9680D48C1F30122083056
:103DE000032A0BD0016821F4F81101602068A98929
:103DF000C1F30B01084320600020E7E70268074B8E
:103E000022F4F81219400A430260EFE7000047422B
:103E10000038024000700040400E4742FFFCFF0F98
:103E20002DE9F047DFF830A105460F46DAF800002B
:103E300000F00F01F8B28146B94208D201468AF873
:103E40000010DAF8000000F00F00B8426AD12878BC
:103E5000424C800705D52068A96820F0F00008438F
:103E600020602878C0074FD03C496868083901288D
:103E700019D002281AD0032818D009688907002908
:103E800050DA216821F0030101432160FFF716FA9F
:103E90000646686841F28838012810D002281AD0F6
:103EA00003281ED02CE009688903E8E70968890126
:103EB000E5E700BFFFF702FA811B41451DD82068E6
:103EC000C0F381000128F5D11EE000BFFFF7F6F92D
:103ED000811B414511D82068C0F381000228F5D12B
:103EE00012E02068FFF7EAF9801B4045F9D904E0A9
:103EF000FFF7E4F9811B414502D90320BDE8F087B3
:103F0000206810F00C0FF3D1DAF80010504601F0E1
:103F10000F01B94208D980F80090006800F00F0046
:103F2000B84201D00120E9E72878400705D520688C
:103F3000E96820F4E050084320602878000706D59F
:103F40002068296920F4604040EAC10020600F2009
:103F5000FFF754FE0020D1E7003C02400838024041
:103F600010B500F043F808490968F02292FAA2F26D
:103F700001F0F001B2FA82F2D140044A515CC8402B
:103F80000349086010BD000008380240E66E0100D9
:103F90001400002010B5FFF7E3FF074909684FF44C
:103FA000E05292FAA2F201F4E051B2FA82F2D14068
:103FB000024A515CC84010BD08380240E66E01005C
:103FC00010B5FFF7CDFF074909684FF4604292FA38
:103FD000A2F201F46041B2FA82F2D140024A515C8D
:103FE000C84010BD08380240E66E010030B51948DF
:103FF000006810F00C01184812D0441004290ED0AB
:1040000008290DD11349091F0A6802F03F030A6805
:10401000550247F6C07204D5B4FBF3F003E0204626
:1040200030BDB0FBF3F00B680968134092FAA2F2BE
:10403000B2FA82F2D34058434FF4403292FAA2F2DD
:1040400001F44031B2FA82F2D140491C4900B0FB80
:10405000F1F030BD083802400024F4002DE9F84F9B
:104060000446DFF8CC820078A8F1040BC007ABF15E
:10407000040537D0D8F800104046C1F3810101296A
:1040800008D00068C0F3810002280AD1DBF80000E4
:10409000400206D52868800324D56068002878D0BF
:1040A00020E0A3492079891F0870606868B1FFF794
:1040B00005F9064605E000BFFFF700F9801B6428FC
:1040C00068D828688003F7D50CE0FFF7F7F80646B4
:1040D00005E000BFFFF7F2F8801B6428F0D82868DD
:1040E0008003F7D42078934E80074FF0010A4FF0F9
:1040F000000742D5D8F80010404611F00C0F08D048
:104100000068C0F3810002280AD1DBF800004002F9
:1041100006D42868800714D5E068012839D110E05A
:10412000E068D8B1C6F800A0FFF7C8F8814605E0FE
:10413000FFF7C4F8A0EB09000228C1D8286880075F
:10414000F6D52868F82292FAA2F22169B2FA82F230
:1041500020F0F8009140084328600EE03760FFF738
:10416000ADF8814606E000BFFFF7A8F8A0EB090014
:1041700002280FD828688007F6D42078000728D5B1
:104180006D486169A1B1C0F800A0FFF797F88146BA
:1041900008E0CAE079E000BFFFF790F8A0EB090063
:1041A000022872D862486C3000688007F4D510E0AD
:1041B0000760FFF783F8814606E000BFFFF77EF84F
:1041C000A0EB0900022860D859486C3000688007CD
:1041D000F4D42078400749D555483830016841F07B
:1041E00080510160006800F08050009053480168E1
:1041F00041F480710160FFF761F8814606E000BF7D
:10420000FFF75CF8A0EB090002283ED84B48006895
:10421000C005F5D5DFF81891207A09F1680989F809
:104220000000A06888B1FFF749F8009008E000BFDF
:10423000FFF744F80099411A41F2883081426CD866
:10424000D9F800008007F3D510E0FFF737F80090A9
:1042500008E000BFFFF732F80099411A41F28830B8
:1042600081425AD8D9F800008007F3D4A069E0B39E
:10427000D8F80010C1F38101022956D00228376610
:1042800004D0FFF71BF804464AE046E0FFF716F8B3
:10429000074604E0FFF712F8C01B02283DD8286843
:1042A0008001F7D4D4E90701084347F6C07292FAB7
:1042B000A2F2616AB2FA82F29140A26A4FF0FF3331
:1042C00003EB52024FF4403393FAA3F3B3FA83F3B0
:1042D0009A40114308434FF0706292FAA2F2E16AE9
:1042E000B2FA82F29140084300E01CE0CBF80000F3
:1042F000C6F860A0FEF7E2FF044604E0FEF7DEFF2A
:10430000001B022809D828688001F7D50BE000BF00
:10431000FEF7D4FF001B022802D90320BDE8F88F66
:1043200028688001F4D40020F8E70120F6E70000B7
:104330000838024000004742800E474200700040AB
:1043400010B500680B4641680D480140080CD87054
:10435000C1F304245C7001F03F049C70C1F342314E
:10436000197052B90AF0D8FED87058780AF0D4FE05
:10437000587098780AF0D0FE9870002010BD0000A8
:104380003FFFFF0010B50B460168896A596001685C
:104390000969C1F30E019960006801680E48014087
:1043A000C1F305401870C1F306245C7001F07F046E
:1043B0009C70402404EA1141D97052B90AF0ACFE55
:1043C000187058780AF0A8FE587098780AF0A4FE81
:1043D0009870002010BD00007F7F7F0070B5040042
:1043E00002D0607F10B106E0012070BD0020207770
:1043F000204600F041F8022060772168CA20486218
:1044000021685320486220460AF09AFEFF210028C6
:10441000206803D0416204206077E5E78268154B8D
:104420001A4082602268906863681843D4E90435B2
:104430002B43184390602268E0681061206802698D
:10444000238942EA034202612068C26822F08002A6
:10445000C2602068026C22F4802202642068026C30
:10446000A3691A430264206841620120607700203A
:1044700070BD0000BFFF8FFF704700002DE9F047BF
:104480000446007F0B46012825D04FF0010984F82F
:104490001C9002206077587802B30AF03DFE9878AD
:1044A0000AF03AFE9878D97840EA014558781978A8
:1044B000000240EA413005432168CA204862216871
:1044C0005320486220460AF03BFE0026FF274FF0AB
:1044D000040858BB19E00220BDE8F087C10603D5E7
:1044E00000F0EF000A305870D8780AF01EFE02047F
:1044F00058780AF01AFE42EA002298780AF015FE6F
:104500000243187842EA4035D6E70F480540206854
:1045100045602068C16821F08001C1602068806822
:1045200080060AD4204600F089F830B1206847623E
:1045300084F81D8026770120CEE72068476284F842
:104540001D9026770020C7E73FFFFF002DE9F047C9
:104550000446007F0D46012811D04FF0010A84F86F
:104560001CA0022060772068002680684FEA406027
:1045700042B100281ADA28780AF0CEFD17E00220AE
:10458000BDE8F087002800DBEE7028780AF0CDFD4A
:10459000020468780AF0C9FD42EA0022A8780AF00D
:1045A000C4FD0243E87842EA00470AE0EE70A878CA
:1045B000297840EA01476878E978000240EA01403A
:1045C00007432168CA204862216853204862204678
:1045D0000AF0B6FD4FF0FF084FF00409E0B91648A5
:1045E0000740206807602068816821F4802181608D
:1045F000D5E90301084321688A6810438860206870
:10460000C16821F08001C1602068806880060BD4F9
:10461000204600F013F838B12168C1F8248084F8EE
:104620001D9026770120ABE72168C1F8248084F82B
:104630001DA026770020A3E77F7F7F0070B504468A
:104640000068C16821F0A001C160FEF737FE054691
:104650004FF47A7607E000BFFEF730FE401BB04211
:1046600001D9032070BD2068C0688006F4D5002001
:1046700070BD4FF0E0210428086903D020F0040049
:104680000861704740F00400FAE710B5401EB0F131
:10469000807F01D3012010BD4FF0E02460610F2125
:1046A000601709F0F8FA0020A061072020610020BF
:1046B00010BD7047704710B5040003D094F839005E
:1046C00010B107E0012010BD002084F8380020461A
:1046D00000F00CF8022084F83900211D20680CF04D
:1046E000FDFB012084F83900002010BD124A134957
:1046F00008B5904208680DD140F0010008600868D4
:10470000002200F00100009003211C20FFF79EFA18
:104710001C200CE040F0020008600868002200F055
:104720000200009003211D20FFF790FA1D20BDE834
:104730000840FFF780BA000038A10020403802404E
:104740000168CA6842F00102CA600068016841F06D
:104750000101016000207047704770B50446006891
:1047600001694FF00005C943890715D4C168C943E1
:10477000890711D4E91E0161012020762068806933
:104780008007204602D0FFF7E7FF04E000F098F82A
:10479000204600F096F8257620680169C94349074C
:1047A00017D4C168C943490713D46FF004010161EC
:1047B000022020762068806910F4407F204602D0D5
:1047C000FFF7CAFF04E000F07BF8204600F079F81C
:1047D000257620680169C943090716D4C168C94311
:1047E000090712D46FF008010161042020762068C7
:1047F000C0698007204602D0FFF7AEFF04E000F05A
:104800005FF8204600F05DF8257620680169C9430D
:10481000C90617D4C168C943C90613D46FF0100183
:104820000161082020762068C06910F4407F20468E
:1048300002D0FFF791FF04E000F042F8204600F0BC
:1048400040F8257620680169C943C90708D1C168C5
:10485000C943C90704D1891E0161204600F032F81E
:1048600020680169C943090609D4C168C94309061A
:1048700005D46FF0800101612046FFF71AFF206820
:104880000169C943490609D4C168C943490605D429
:104890006FF040010161204600F016F820680169C0
:1048A000C94389060BD4C168C943890607D46FF090
:1048B000200101612046BDE87040FFF7FBBE70BDDE
:1048C000704770470DF03ABA704710B504000ED02B
:1048D000242084F83900204600F0B2F80020E0637C
:1048E00084F8390084F83A0084F8380010BD0120BB
:1048F00010BD0DF031B938B5044600680168C268D2
:1049000011F0010F02F4807207D032B101684168E2
:104910000091E16B41F00101E16301684269C1F37B
:10492000400102F0010239B132B1016841680091E1
:10493000E16B41F00401E16301684269C1F3800168
:1049400002F0010239B132B1016841680091E16BB6
:1049500041F00201E16301684269C1F3C00102F064
:10496000010239B132B1016841680091E16B41F057
:104970000801E1630168C068C1F3401100F0200044
:1049800019B110B120460CF0DFFC21680868C96835
:10499000C0F3C01001F0800118B111B120460CF035
:1049A00075FE21680868CA68C0F3801002F04002F2
:1049B000202548B142B1CA68204622F04002CA60B0
:1049C00084F8395000F0BBF9E06B002806D084F879
:1049D000395084F83A502046FFF78BFF38BD70B548
:1049E000040004D094F83900002510B106E001203D
:1049F00070BD84F83850204600F04EF8242084F82A
:104A000039002068C16821F40051C16020460CF0D3
:104A1000E7FC2068016921F4904101612068416947
:104A200021F02A0141612068C16841F40051C16050
:104A3000E563202084F8390084F83A00002070BD36
:104A400010B511490446002008600220FFF7E8F87D
:104A50000E48844216D10E48016841F010010160F1
:104A6000016821F0100101600A4C41152046FEF753
:104A7000C1FA21152046FEF7BDFABDE810402520F9
:104A8000FFF7CEB810BD00003C0E474274A10020D5
:104A900024380240000002402DE9F04196B08046E3
:104AA0000C20002405900125CDE90A5405A807949F
:104AB000FFF7D4FA08B1FEF74DF80226370211A825
:104AC00014971196FFF706F908B1FEF743F82B4843
:104AD000056000220F210220FFF7B8F80220FFF73F
:104AE000AAF82749884545D12648016841F00101C7
:104AF0000160016801F001011591016841F00101B7
:104B00000160006800F0010015901E481430016833
:104B100041F010010160016801F010011591016878
:104B200041F4804101600068009700F480401590D6
:104B3000CDE9016407240320CDE90304124E694640
:104B40003046FEF7EDFA3015009069460494304681
:104B5000FEF7E6FAB01400906946029504943046D8
:104B6000FEF7DEFA002203212520FFF76FF825204B
:104B7000FFF761F816B0BDE8F08100003C0E474237
:104B800074A1002030380240000002402DE9F041BD
:104B9000044690F83A0098460D4620284AD105B3BD
:104BA000FAB194F83800012844D0012084F8380084
:104BB0000026E663222084F83A00A285E2854FF4BD
:104BC0008057E08D4346401EE085A0684FF000020C
:104BD000B8424FF02001204614D10CF088FDA0B956
:104BE00002E00120BDE8F0812069002820684068CB
:104BF00003D0C1B225F8011B12E0C0F3080125F86B
:104C0000021B0DE00CF073FD08B10320EAE72069F8
:104C100000282068406801D000F07F0005F8010BF3
:104C2000E08D0028CDD1202084F83A0084F8386047
:104C30000020D7E70220D5E790F83A30202B25D185
:104C400011B30AB390F83830012B1FD0012380F83C
:104C5000383081628285C2850021C163222280F8BA
:104C60003A200268D36843F48073D36002685369C2
:104C700043F00103536180F838100068C16841F0C7
:104C80002001C1600020704701207047022070475A
:104C90000CF064BF2DE9F041044690F839009846C5
:104CA0000D46202849D105B3FAB194F838000128FF
:104CB00043D0012084F838000026E663212084F8E0
:104CC0003900A284E2844FF48057E08C4346401EB2
:104CD000E084A0684FF00002B8424FF08001204607
:104CE00011D10CF004FDF8B902E00120BDE8F0811B
:104CF00028882168C0F308004860206908B16D1C4D
:104D000008E0AD1C06E00CF0F2FC68B9216815F86B
:104D1000010B4860E08C0028D7D143460022402197
:104D200020460CF0E4FC08B10320DFE7202084F8E3
:104D3000390084F838600020D8E70220D6E70CF06C
:104D400043BF2DE9FC411D46DDF8208016460C4688
:104D500007000AD04CB146B13DB15FEA080004D06B
:104D60002021FCF7F9FF80B902E00120BDE8FC81B9
:104D70004046FDF737F8CDE900403B462A4631462C
:104D800002200FF089F80028F0D00220EEE738B5B5
:104D900004466B460122202100F014FA68B99DF800
:104DA00000006B4640F080008DF8000001222021B9
:104DB000204600F07BFB002800D0012038BD38B52C
:104DC000044600208DF800006946204600F042F9B4
:104DD000012805D020789DF80010884201D00120DC
:104DE00038BD002038BD38B504466B46012220216D
:104DF00000F0E8F968B99DF800006B4620F08000EB
:104E00008DF8000001222021204600F04FFB0028F1
:104E100000D0012038BD38B514460D466B4601223E
:104E2000272100F0CFF908B1012038BD9DF800001E
:104E3000C0F3400028709DF8000000F001002070D1
:104E4000002038BD10B50B4601220F2100F0BAF941
:104E5000002800D0012010BD2DE9F8438846814686
:104E60006B460222302100F0ADF9F0B99DF8000048
:104E70006B4644089DF80100022247083621484647
:104E800000F0A0F988B9BDF900506B4602223A2122
:104E9000484600F097F940B9BDF900606B46022220
:104EA0002821484600F08EF910B10120BDE8F883B2
:104EB000BDF900001A49401B00EE100A381BF8EE3D
:104EC000C00A00EE100A701BB8EEC00A60EE800A3D
:104ED00000EE100AB8EEC00A80EE801A00EE104A0A
:104EE000F2EE040AB8EEC00A31EE000A20EE200A03
:104EF00010EE100A884202DD4FF47A700BE0B5EE36
:104F0000C00AF1EE10FA01D2002004E0BCEEC00AA3
:104F100010EE100A80B2A8F800000020C6E70000DA
:104F200000007A4438B50C46694600F023F80128A1
:104F30000DD09DF8000058B101280CD0022810D0E7
:104F4000032811D0BFEE000A84ED000A012038BD0D
:104F50009FED070A01E0B7EE000A84ED000A002089
:104F600038BDB1EE0C0AF8E7B2EE090AF5E7000029
:104F70000000000038B50C466B460122202100F0ED
:104F800021F908B1012038BD9DF8000000F00300B0
:104F90008DF800002070002038BD2DE9FC478846C0
:104FA00081466B460222322100F00CF940BB01AB76
:104FB00001223521484600F005F908BB9DF80400A0
:104FC0009DF8001000F0030241EA02219DF8012043
:104FD00000F00C0042EA8010CC10C7106B4604228F
:104FE0003C21484600F0EEF850B9BDF90050BDF93B
:104FF00002606B4602222A21484600F0E3F810B115
:105000000120BDE8FC87BDF90000401B00EE100A3E
:10501000381BF8EEC00A00EE100A701BB8EEC00A8A
:1050200020EE801A00EE100AB8EEC00AC1EE000AA7
:1050300000EE104AB8EEC00A30EE800AF2EE040A22
:1050400020EE200ABDEEC00A10EE100AA8F80000FB
:105050000020D6E710B5FFF7F5FE012800D00020AC
:1050600010BDFFF7ACBE10B504468068006800684C
:10507000407820B9204600F052F8012805D0A168F8
:105080000020096809680870E07010BD1CB50C4666
:1050900001AA6946FFF7BFFE012805D09DF8000070
:1050A00018B1012801D001201CBD207000201CBDBA
:1050B00038B50D460024ADF800406946FFF7CCFE38
:1050C00001280CD0BDF80000F2EE040A00EE100A30
:1050D0002046B8EE400A80EE201A85ED001A38BD51
:1050E000FFF720BFFFF7B6BF10B504468068006821
:1050F0000068407820B9204600F04BF8012806D01F
:10510000A1680120096809680870E070002010BDDE
:1051100010B500F065F8012800D0002010BD10B5D2
:105120000446007900280FD0A06800680068C078A5
:1051300020B9204600F05DF8012805D0A1680020C4
:10514000096809688870207110BD10B5044600799F
:10515000012805D0A06800680068C07810B106E09A
:10516000002010BD204600F04BF80128F9D0A168BE
:1051700001200968096888702071F1E700F08CB897
:1051800000F09EB810B500F09FF9012800D0002073
:1051900010BD10B50446FFF712FE012811D02046BD
:1051A000FFF721FE01280CD00121204600F030F845
:1051B000012806D00021204600F06EF8012800D01A
:1051C000002010BD10B51C46012A01D941F0800114
:1051D000134622460BF0EAFB002800D0012010BD48
:1051E00010B513460122FFF7EDFF012800D0002083
:1051F00010BD10B5FFF7F7FD012800D0002010BD4D
:1052000010B5FFF7C4FD012800D0002010BD00003C
:1052100038B50C460546012905D024B140F263217A
:105220000DA000F05BF96B4601222021FFF7CAFFB9
:1052300078B99DF800006B4620F0040040EA840035
:105240008DF8000001222021284600F02FF90028C7
:1052500000D0012038BD00002E2E5C2E2E5C2E2E9C
:105260005C2E2E5C2E2E5C2E2E5C4472697665724E
:10527000735C4253505C436F6D706F6E656E7473F8
:105280005C6874733232315C4854533232315F445B
:1052900072697665722E630010B505290DD2DFE8BC
:1052A00001F0030505050500012100E0032100F0E0
:1052B0001FF8012800D0002010BD012010BD000003
:1052C00010EE101A10B5B1F17E5F01DC012107E08C
:1052D00010EE101A054A914201DC022100E0032180
:1052E00000F006F8012800D0002010BD0000E040CA
:1052F00038B50C0005460AD0012C08D0022C06D087
:10530000032C04D040F2BA210CA000F0E7F86B4661
:1053100001222021FFF756FF70B99DF800006B466F
:1053200020F0030020438DF80000012220212846B0
:1053300000F0BCF8002800D0012038BD2E2E5C2ED5
:105340002E5C2E2E5C2E2E5C2E2E5C2E2E5C44723D
:1053500069766572735C4253505C436F6D706F6E1B
:10536000656E74735C6874733232315C48545332C6
:1053700032315F4472697665722E6300FFF71FBD9C
:1053800010B50446806800680068007820B920469F
:1053900000F052F8012805D0A168002009680968CA
:1053A0004870E07010BD1CB50C466A4601A9FFF7B5
:1053B00032FD012805D09DF8000018B1012801D068
:1053C00001201CBD207000201CBDFFF7ABBD38B50F
:1053D0000D460024ADF800406946FFF7DEFD0128C8
:1053E0000CD0BDF90000F2EE040A00EE100A2046CF
:1053F000B8EEC00A80EE201A85ED001A38BDFFF71E
:1054000029BE10B50446806800680068007820B99D
:105410002046FFF7BEFE012806D0A16801200968DA
:1054200009684870E070002010BD10B5FFF7D8FE85
:10543000012800D0002010BD10B5044600790028D6
:105440000FD0A06800680068807820B92046FFF778
:10545000D0FE012805D0A168002009680968C8703D
:10546000207110BD10B504460079012805D0A06850
:1054700000680068807810B106E0002010BD20466A
:10548000FFF7BEFE0128F9D0A1680120096809686C
:10549000C8702071F1E7FFF7FFBEFFF711BF10B52D
:1054A00000F012F8012800D0002010BD10B51C46F5
:1054B000012A01D941F08001134622460BF08EFAF1
:1054C000002800D0012010BD07B502AB0122FFF774
:1054D000EDFF012800D000200EBD00000A46014665
:1054E00001A00CF05DFFFEE757726F6E67207061E0
:1054F00072616D65746572732076616C75653A20B2
:1055000066696C65202573206F6E206C696E65205E
:1055100025640D0A0000000070B5050015D01020AC
:105520000CF0D8FF040010D028460BF03FF82060A4
:1055300068B108200CF05DFAE06060B14FF0FF3018
:1055400060600020A060204670BD002070BD204635
:105550000CF07CFFF9E720680BF0AAF8F7E72DE9DB
:10556000F041040025D06068022804D1A06800F052
:10557000B9F900F0E1F920680BF09AF8E0680CF056
:10558000C8FA074600250AE029460CF04AFA064602
:1055900000680CF05BFF70680CF058FF6D1CE06851
:1055A000BD42F1D30CF031FA2046BDE8F0410CF0D9
:1055B0004DBFBDE8F0812DE9F0479AB0924689468B
:1055C000DDE92321259E229D10B1B9F1050F01D3FC
:1055D0000224A7E004460DF1280E0DF1640C0DF134
:1055E000380818AF0FA88EE881110DF1180E0DF1D3
:1055F000400C0DF15C0815AF16A88EE881110396DA
:105600000095CDE9012112A813AFCDE904705246EF
:10561000494620460DF04AFD08B1012482E00025EC
:1056200005956068401C00D165600DF11408606844
:1056300002285EDC18F80010012938D020B10128BA
:1056400005D0022833D11CE000F070FB2EE020686A
:105650000AF044FF00F059F9A06040B3E0680CF094
:1056600058FA0746002609E03146E0680CF0D9F9FF
:10567000D0E90012A06800F065FB761CBE42F3D3AF
:105680001FE01598FCF780FB06461598FCF7AAFB6F
:105690000EAF97E80E00CDE900060293CDE9032195
:1056A000DDE912324946A06800F048F948B1616866
:1056B00008F801506068401E606010D0012815D1C4
:1056C00010E06068022808D0012208F80020606815
:1056D000401C606008F8005008E000240AE000F078
:1056E0002BF903E0A06800F0FDF8A56060680028D1
:1056F0009DDA03249DF85C0010B91598FCF71EFB99
:105700009DF8580010B9129800F074FB9DF86400E1
:1057100010B90E98FCF712FB9DF8600010B90F98B5
:1057200000F068FB1AB02046BDE8F0872DE9F04193
:1057300016460F465FEA00084FF000051AD0CFB1B9
:10574000C6B10C200CF0C6FE040013D0002020606F
:105750006060A06040460AF0C5FE206068B138462F
:105760000AF0C0FE606040B130460AF0BBFEA060A7
:1057700018B125462846BDE8F081204600F001F822
:10578000F8E710B5002811D00446006808B10AF007
:105790008FFF606808B10AF08BFFA06808B10AF0BB
:1057A00087FF2046BDE810400CF050BE10BD000041
:1057B0002DE9FF4F85B09A46DDE91259DDE91576EE
:1057C000DDF850809346040028D03DB31AA1284646
:1057D00000F009FB10B300200EF056FA411C1DD05A
:1057E00000210CF061FE9FED181B51EC100B53ECE7
:1057F000112BFBF78EF8FBF721FA034694E807001C
:1058000009F0A6FE040009D00AF068FE02460AA1CB
:10581000284600F046FB20460AF04AFFCDE90098F2
:10582000CDE902762B46524659460698FFF7C3FE4D
:1058300009B0BDE8F08F0000417574686F72697A35
:105840006174696F6E000000000000000020AC4031
:10585000F8B515460E4604000AD04EB145B16A4669
:105860002946304600F01AF8012801D040B901E07D
:105870000220F8BD31462046009A0DF02BFD08B1FC
:105880000120F8BDA0680028FBD02A46314600F070
:1058900059FA0028F5D00128F2D1E9E770B515468C
:1058A0000E4630B12EB125B101460AA0FAF73AFEF4
:1058B00008B1012070BD3046FAF72DFE401C0CF0F7
:1058C00009FE0400F5D03146FAF747FE00202C60AF
:1058D00070BD0000547275737465644365727473AF
:1058E0000000000010B504000ED002F062F910B103
:1058F000204602F05EF9206C08B10CF0A7FD2046AE
:10590000BDE810400CF0A2BD10BD70B505004FF011
:1059100000040FD048200CF0DDFD04462A4640214B
:105920000FF083FF20B120460CF090FD002401E031
:1059300000202064204670BD704700002DE9FF5F05
:10594000ADF5845D05460DF580501746D0F8C8B01A
:10595000D0F8C08000208246019006460490F1B144
:1059600001291ED002291ED003291ED004291ED0D1
:10597000002475B16FB10DF58050D0F88C0040B1A6
:105980003CB10DF5805006A9D0F88C0000F07AFAF1
:1059900078B1012024B00DF5805DBDE8F09FC4A46E
:1059A000E7E7C4A4E5E7C5A4E3E7C5A4E1E7C6A427
:1059B000DFE7284602F0FFF8012819D0286C30B143
:1059C000FAF7A9FD411C286C02F0F1F870B12946E4
:1059D000022340F2BB12084602F0EFF8012807D07C
:1059E00002244FF496700BF07EFB3FE00220D1E7DB
:1059F000234600974FF480570DACB5A23946204698
:105A00000CF0DEFC0590002802DBB946484501D3C6
:105A10000D20BFE72046FAF77EFD024621462846C4
:105A200002F0E2F801287DD1002725E00DF5805035
:105A30006A463946D0F88C0000F0EAF908B10C202B
:105A4000A8E70098FAF767FD02462846009902F099
:105A5000CBF8012806D10222A2A1284602F0C4F800
:105A6000012805D0052400980CF0F0FC204691E7B1
:105A700000980CF0EBFC7F1C06988742D6D30222DC
:105A800098A1284602F0B0F8012855D10DF58050B4
:105A9000D0F8B80068B10DF58050D0F8BC0040B126
:105AA00041F2B8006844D0E90012284602F09CF8A0
:105AB000C0B34F464A46214628460FF073FD0028E2
:105AC00075DD89A12046FAF70AFD60B305AA89A110
:105AD0000930FAF7A7FD012869DBB8F1000F02D001
